:10000000403B00203D4000009B9C00001140000050
:1000100011400000114000001140000000000000ED
:10002000000000000000000000000000FD3C000097
:100030001140000000000000A53C0000114000003D
:10004000B13D0000B13D0000B13D0000B13D0000F8
:10005000B13D0000B13D0000B13D0000B13D0000E8
:10006000B13D0000B13D0000B13D0000B13D0000D8
:10007000B13D0000B13D0000B13D0000B13D0000C8
:10008000B13D0000B13D0000B13D0000B13D0000B8
:10009000B13D0000B13D0000B13D0000B13D0000A8
:1000A000B13D0000B13D0000B13D0000B13D000098
:1000B000B13D0000B13D0000B13D0000B13D000088
:1000C000B13D0000B13D0000B13D0000B13D000078
:1000D000B13D0000B13D0000B13D0000B13D000068
:1000E000B13D0000B13D0000B13D0000B13D000058
:1000F000B13D0000B13D0000B13D0000B13D000048
:1001000001F0FF01102A2BDB10F0070F08D010F8C8
:10011000013B013A8B422DD010F0070F42B3F6D1CC
:10012000F0B441EA012141EA014122F007047FF0E5
:1001300000070023F0E80256083C85EA010586EA3C
:10014000010685FA47F5A3FA87F586FA47F6A5FA78
:1001500087F68EB9EED1F0BC01F0FF0102F0070284
:1001600032B110F8013B013A83EA010313B1F8D12F
:100170000020704701387047002D06BF3546033810
:10018000073815F0010F07D1013015F4807F02BF49
:10019000013015F4C03F0130F0BC0138704700BF9A
:1001A000D0E9001040186FF015004FF0010138BF82
:1001B000002038BF0021704753B94AB9002908BF51
:1001C00000281CBF4FF0FF314FF0FF3000F00CB89B
:1001D000ADF1080C6DE904CE00F008F8DDF804E09C
:1001E000DDE9022304B07047704700BF2DE9F047F6
:1001F00086468C460846089E154674461946002BCE
:1002000040F0C2808542B2FA82F245D94AB1C2F1C9
:10021000200300FA02FC2EFA03F3954043EA0C0C8B
:1002200094404FEA154EA8B2BCFBFEF8230C0EFB1F
:1002300018CC08FB00F943EA0C43994528D9EB1880
:1002400008F1FF3704D2994502D9A8F102072B44DF
:10025000A3EB0903A4B2B3FBFEFC0EFB1C330CFBA7
:1002600000F044EA0344A04214D92C190CF1FF33E6
:1002700004D2A04202D9ACF102032C44241A43EA6E
:1002800007401EB1D440002334607360BDE8F0879E
:100290004746DDE76346F1E792BB431B01214FEA86
:1002A000154EAFB2B3FBFEFC200C0EFB1C330CFB57
:1002B00007F840EA0343984562D9EB180CF1FF3088
:1002C00004D2984502D9ACF102002B44A3EB0803F9
:1002D000A4B2B3FBFEFC0EFB1C330CFB07F744EA95
:1002E0000344A7424ED92C190CF1FF3304D2A74284
:1002F00002D9ACF102032C44E41B43EA0040C0E7FE
:10030000C2F1200320FA03F1954090402EFA03F346
:1003100003434FEA154EAFB2B1FBFEFC0EFB1C10BF
:10032000190C0CFB07F841EA0041884504FA02F475
:1003300022D969180CF1FF3004D2884502D9ACF1FA
:1003400002002944A1EB08019BB2B1FBFEFC0EFBAD
:100350001C110CFB07F743EA01439F420ED9EB182F
:100360000CF1FF3104D29F4202D9ACF102012B44BF
:10037000DB1B41EA004192E76046E3E76146F7E7AD
:100380006046A3E76346B7E7834206D916B9002162
:1003900008467BE7C6E900E0F9E7B3FA83F78FB9CF
:1003A000834201D3724508D8BEEB020460EB03031D
:1003B00001209C461EB9002168E73846FAE7C6E9E5
:1003C000004CF8E7C7F1200CBB4022FA0CF41C43A8
:1003D0002EFA0CF120FA0CF3B84001434FEA14490D
:1003E0000EFA07F5B3FBF9F81FFA84FE09FB183083
:1003F0000B0C08FB0EFA43EA00439A4502FA07F297
:1004000040D9E31808F1FF3004D29A4502D9A8F187
:1004100002002344A3EB0A0389B2B3FBF9F809FBFA
:10042000183308FB0EFE41EA03418E452CD96118B2
:1004300008F1FF3304D28E4502D9A8F1020321440A
:1004400043EA0040A0FB0298A1EB0E014145CE46D5
:10045000434602D306D14D4504D2B9EB020E68EBF8
:1004600004030138002EA6D0B5EB0E0261EB0301A8
:1004700001FA0CFC22FA07F34CEA0303F940C6E93F
:10048000003198E74046C5E74346D9E710F8012B0D
:1004900011F8013B012A28BF9A42F7D0D01A7047C1
:1004A000034613F8012B002AFBD1181A01387047B4
:1004B00080B400AF024B1B681846BD4680BC704735
:1004C0000002002080B400AF0A4B40221A600A4BA1
:1004D0001B68094A43F080731360084B00221A60BE
:1004E000074B1B68064A43F00103136000BFBD467B
:1004F00080BC704700000020FCED00E0041000E02C
:10050000001000E080B400AF024B1B681846BD46E7
:1005100080BC7047041000E080B500AF074B00229C
:10052000C3F89020FFF7CEFF054B1B68034A136604
:10053000044B1B68014A536600BF80BD780700204A
:100540007CBC000078BC000080B584B000AF78604F
:100550001B4B1B7883F00103DBB2002B01D0FFF7AC
:10056000DBFF184BD3F890300B2B03DD154B00222B
:10057000C3F89020134BD3F89030FB601149FB680F
:1005800018337A6841F823200E4AFB680C330021A7
:1005900042F823100B4AFB680C3352F82320094918
:1005A000FB6841F82320074BD3F890300133054A0C
:1005B000C2F89030FB6818461037BD4680BD00BFBA
:1005C0004C1800207807002080B582B000AF78601A
:1005D0000B4B1B7883F00103DBB2002B04D0FFF739
:1005E0009BFF074B01221A70FFF78CFF024605495B
:1005F0007B6841F8232000BF0837BD4680BD00BF9F
:100600004C1800207807002080B582B000AF7860D9
:10061000FFF778FF024609497B680C3341F8232035
:10062000064A7B680C3352F8232004497B6851F852
:100630002330D31A18460837BD4680BD78070020FE
:1006400080B582B000AF08F08BF903467B60796813
:10065000044807F075F800F007F800BF0837BD46FA
:1006600080BD00BF98B80000B0B590B000AF4FF0AB
:1006700000024FF00003C7E90C230523FB620023AF
:10068000BB6200237B623B1D2022002118460AF03A
:100690005DFAFB6A7B60BB6ABB607B6AFB60002320
:1006A000FB631448FFF750FF0023BB6316E00020F4
:1006B000FFF78AFF3B1D1846FFF772FD0346DA1766
:1006C0001C461546C7E90C450020FFF79DFF024672
:1006D000FB6B1344FB63BB6B0133BB63BB6BB3F5B9
:1006E0007A7FE4DBF96B044807F02AF800BF403753
:1006F000BD46B0BDE8B60000B0B800002DE9F0413D
:1007000007460E46154600F08FF8C36804461BB92D
:1007100043691A78002A40D10023E3606368BB4232
:1007200056F8232008DB324B6361204600F062F864
:100730004FF0FF30BDE8F081511C616192F80080FC
:10074000B8F12D0FEFD1911C61615178A1602D2975
:1007500004D192786AB901336360E4E749B9244B64
:100760006361414628460AF002FA0028DDD0C4F849
:100770000880A16828460AF0FAF9A3683A2B636951
:1007800001D01A4670B91B7813B9636801336360EE
:10079000204600F02FF83F20CCE75A1C42611B781E
:1007A0008360E6E741783A290BD0002222611B786A
:1007B00013B9636801336360204600F01BF8A0683A
:1007C000B8E7107863680A4928B901339F4263602B
:1007D00004DD56F82320C4E90421EAE761612D789D
:1007E0003A2D2046D5D100F005F82846A2E700BFF3
:1007F0000BC50000074B02681A60074B42681A607D
:10080000064B82681A60064BC2681A60054B026983
:100810001A607047200000201C00002014080020EF
:10082000100800200C080020004870470400002039
:10083000014B1B68184700BF24000020014B1860C3
:10084000704700BF2400002007B50B460021024678
:100850000091034800F076F903B05DF804FB00BF97
:10086000310800002DE9F047058B04462807904623
:1008700011D4022905F0070540F0CD80204608F08C
:10088000FAF878B10138218B042811D8DFE800F09C
:10089000C3106D85950001290CBF45F0100545F08A
:1008A0002005258388F31188BFF36F8FBDE8F0879B
:1008B00001F0070AAA4500F0A6800027B9463E4687
:1008C000A368002B00F0BD8041F00801218388F36C
:1008D0001188BFF36F8FA168002900F0BB800D68FD
:1008E000002900F0B780D1F80480334652462046F4
:1008F000C047002D76D02B6829461D46F0E701F051
:1009000007035A1F012A1BD8002221F00701062BDA
:10091000276889B2C4E9002209D13B4603E0628B13
:10092000013262831B68002BF9D141F0020121835F
:10093000204608F0A0F800287BD041F0200177E0A5
:10094000042B0AD121F0070189B22183204608F047
:1009500092F810B141F020012183218B01F0070AA8
:10096000AA4550D00027B946AAE7236921F007011C
:1009700041F00601062DD3F8009021832DD1B9F165
:10098000000F40D041F00801218388F31188BFF3A4
:100990006F8F3A492046C84729E021F007012369B3
:1009A00041F0040189B2042DD3F804902183E6D0EC
:1009B00000273E464FF0040A82E721F00701236931
:1009C00041F0050189B2052DD3F808902183D6D0D6
:1009D00000273E464FF0050A72E700273E464FF0DB
:1009E000060A6DE72B4687E7B9F1000FD1D14FF02A
:1009F0002003EFF3118883F31288BFF36F8F238BEB
:100A000023F008032383258BEA062ED525F0100357
:100A1000238305F007056669218B002EBFF66FAFB3
:100A200000232768C4E9003321F0070141F00101E8
:100A30002183218B01F0070AAA454FF000097FF4BA
:100A40003FAF002F9BD041F00801218388F311882C
:100A5000BFF36F8F002FC7D03D68394633465246EB
:100A6000204608F034F82F46F4E7AB067FF51AAFBE
:100A700025F02003238305F00705FFE6FB8A00002D
:100A8000F0B5094E016802460A2700200B460131E5
:100A90001C78355D6D0701D41360F0BD07FB004382
:100AA000A3F13000F2E700BFBFD400002DE9F84FFA
:100AB00015469A46D378224A12F803B06F2B804627
:100AC0000F460BF0030B29D024D8582B0CBF10264F
:100AD0000A26DDF828903246002340463946FFF7C3
:100AE0006BFB092AD4B21ED83034B045E4B277F19A
:100AF000000709F8014D01D3D14511D82B789B0689
:100B000005D5082E15D1AB7843F00803AB704846E5
:100B1000BDE8F88F03F0F703702BD7E70826D8E776
:100B200080460F46D7E7BBF1010F0CBF373457346F
:100B3000DBE7102EEBD1AB7843F01003E6E700BF04
:100B4000BFD400002DE9F04F97B0824603911746BD
:100B50001C460025387808B928464AE37B1C25281E
:100B6000049306D00399D0470028C0F24283013590
:100B7000F0E11822002110A809F0E8FF7B78252B6E
:100B800000F0A3800023791C98469E469C46184698
:100B90000E4611F8012B2B2A00F0C68000F2BD8012
:100BA000202A00F0C480232A00F0C4802BB19DF8D5
:100BB000483043F040038DF84830B8F1000F05D0BD
:100BC0009DF8483043F020038DF84830BEF1000F07
:100BD00005D09DF8483043F010038DF84830BCF143
:100BE000000F05D09DF8483043F008038DF84830D9
:100BF00028B19DF8483043F004038DF848309DF843
:100C0000483003F04401442903D16FF386138DF873
:100C100048309DF84830099643F080032A2A8DF821
:100C2000483040F08C809DF8493043F001038DF846
:100C30004930731C1A782E2A9DF849200CBF0121D7
:100C4000002161F341028DF849200CD15A1C099210
:100C50005A782A2A40F083809DF8492042F0040205
:100C60008DF8492002331A786C2A00F0A48000F233
:100C70008680682A00F08C806A2A00F0A5804C2AC1
:100C800000F0AA801A4612F8013B0492782B9DF8D6
:100C900049208DF84B3000F217816D2B00F2A980AE
:100CA000692B00F21181572B00F2BE80412B03D03B
:100CB000453B022B00F208819DF84A30042262F382
:100CC00002038DF84A300123CAE0BA1C04928DF861
:100CD0004B309DF84930DA0740F1FD8054F8049B11
:100CE000B9F1000F07DA9DF8482042F004028DF8B0
:100CF0004820C9F100095E0740F1F68054F804BBB2
:100D0000BBF1000F80F2F5809DF849306FF341038D
:100D10008DF849304FF0FF3BEBE02D2A0DD0302A03
:100D20007FF444AF012333E74FF0010C30E74FF07D
:100D3000010E2DE74FF001082AE7012028E709A856
:100D4000FFF79EFE099BB3423FF474AF9DF8482025
:100D50001390C00F60F341028DF848206AE709A89C
:100D6000FFF78EFE9DF848301490C3F3400242EA2C
:100D7000D07262F341038DF84830099B73E7742AFF
:100D800026D07A2A7FF47EAF9DF8492006210CE018
:100D90005A78682A9DF8492006D1012161F3C602DC
:100DA0008DF8492002336DE7022161F3C6028DF808
:100DB0004920013366E75A786C2A9DF8492001D111
:100DC0000421EBE70321F0E79DF849200521ECE73A
:100DD0009DF849200721E8E7BDF8482022F4F042B9
:100DE00022F0020242F4804242F00202ADF84820B2
:100DF000DFE76E3BD9B201238B4040F282410B42C8
:100E000038D113F0240F52D1D8075DD59DF84A3060
:100E1000032161F302038DF84A3002F07803A3F155
:100E200040014B424B411BE0A3F15801C9B20120E4
:100E300000FA01F111F4624F7FF43EAF40F6010673
:100E400031421DD111F4043F3ED09DF84A3060F389
:100E5000020302F07802402A8DF84A3034D0002391
:100E60009DF84820C2F340010B4363F341028DF823
:100E700048202EE79DF84A30022161F30203E8E79B
:100E80009DF84A10022002F0780260F30201402A25
:100E90008DF84A1002BF9DF8481041F001018DF80D
:100EA0004810632BDBD1131E18BF0123D8E79DF830
:100EB0004A30032161F3020312F0780F8DF84A30B3
:100EC00014BF01230023CBE79DF8483043F0010312
:100ED0008DF84830C3E79DF94820002AB4BFDDF8FB
:100EE0004C904FF0FF3906E798077FF513AFDDF818
:100EF00050B09DF849100023CDE913339DF84A30D6
:100F000003F00703012BC1F3C30133D1CB1E042B24
:100F100004D8DFE803F02146462121002368012997
:100F20004FEAE372CDE910321CD19DF94030DA1757
:100F3000CDE9103204349DF8483013F0030650D048
:100F4000049B03993A46504607F07DFE0028C0F204
:100F500050810544049FFDE554F8043BDA17CDE9C0
:100F60001032E8E70229E5D11AB243F3C033CDE9E4
:100F70001023DFE7022B24D1CB1E042B04D8DFE89B
:100F800003F0181010181800012954F8043B4FF012
:100F9000000214D00229CDE91032CCD19BB21093BB
:100FA000C9E7073424F00704F4E80223CDE910234D
:100FB000C1E754F8043B109300231193BBE7DBB265
:100FC000CDE7042B08D1073424F00704D4E900232B
:100FD0000834CDE91023AEE7032BACD154F8043B21
:100FE000DDE79DF84B007828B4D862281CD8252866
:100FF0003FF4B8AD5828ADD10DF13E030093DDE9C3
:1010000010010AAB12AAFFF751FDBBF1000F074612
:1010100080F29880002F9DD00DF13E08A8EB0700CC
:10102000002E4ED001304CE06338152892D801A232
:1010300052F820F0B310000019110000550F000005
:10104000550F0000550F0000550F0000191100004A
:10105000550F0000550F0000550F0000550F000000
:10106000A31100003F11000065110000550F0000A2
:10107000550F00008D100000550F00003F110000BB
:10108000550F0000550F00003F110000BBF1000F8D
:10109000109F0ADB5946384609F0A3FD07EB00080C
:1010A000002F3FF457AF00260BE03846FFF7F8F962
:1010B000F4E7109B8DF8283000260DF129080AAFBF
:1010C00001209DF84A3013F01002059200F0848050
:1010D00002305B06DDF84CB048BF149B584448BF53
:1010E000C018B9F1000F40F391809DF84820A9EB9A
:1010F0000009C2F380035007069300F18780510670
:101100007AD53EB103993046D047002871DB069B63
:1011100001351E46302270E019075CBFC3F300138F
:101120005E01DDE9102348BF2B26002BBFF664AF1C
:10113000524263EB4303CDE910232D265CE70026E2
:101140005AE700269DF848200DF13E03DB1B6FF3A4
:1011500086129B458DF848207FF65CAFABEB03030E
:10116000139357E7109880B30DF13E080AABCDF802
:10117000008012AA0021FFF799FCBDF84A3003F065
:10118000EF0343F4F04343F01003BBF1000F0746B5
:10119000ADF84A30D5DA00283FF4DCAEA8EB000009
:1011A00081E7109B07293FF6D5AEDFE801F00C047C
:1011B000060C08080C0C1D70CCE61D80CAE6EA1768
:1011C000C3E90052C6E61D60C4E6DFF8BC800646EF
:1011D000A8F10507052074E71A0748BF013078E732
:1011E0000793104606920399D0470028DDE90623AD
:1011F00004DA17B0BDE8F08F20224B4619460029CB
:1012000003F1FF33ECDC4D446D1A99462EB103997E
:101210003046D0470028ECDB01359DF84A30DA062D
:1012200001D41B0705D503993020D0470028E0DB07
:101230000135059B33B103999DF84B00D047002839
:10124000D7DB0135AB4405E003993020D0470028B7
:10125000CFDB0135ABEB0503002BF5DC03994346EF
:101260003A46504607F0EFFC0028C2DB0544A9448B
:10127000A9EB0503002B7FF76DAE03992020D04723
:101280000028B6DB0135F3E7D9C3000008B54FF0FD
:101290002002EFF3118382F31288BFF36F8F03F004
:1012A000A7F8034807F06CFB02F072FCFCE700BFF4
:1012B000DAC300000B0706D5034B1B5C03F00303E6
:1012C000012B08BF20307047BFD4000004F05AB98A
:1012D00013B5044605F0C0F9C0F307230193C0F32A
:1012E00007430093044A030E0821204608F07BF8C8
:1012F000002002B010BD00BF03C4000038B5044692
:1013000009F05CFA4FF47A75A0FB052305FB013365
:10131000D20B42EA43432046024A082108F063F810
:10132000002038BD1CC4000010B5044604F03CF891
:10133000084A03460821204608F055F8064A204688
:10134000082108F050F80548214605F001F8002072
:1013500010BD00BF2BC400004AC400006113000090
:10136000F0B58FB0D0F8A07004460D4609F0D6F85D
:10137000064605F079FD244B244A002E08BF1E4680
:10138000234BCDE90046844218BF13460821284666
:10139000204A08F028F8D4E90A23CDE9022394F979
:1013A0000E300093237B1C4A2846082108F01BF8C6
:1013B00006A92022204605F013F8626E009203462B
:1013C000164A0821284608F00EF805A9204609F01B
:1013D000B5F8034630B1124A0821284608F003F850
:1013E0000FB0F0BD059A6423B91ACDE900214B4333
:1013F0000C4AB3FBF7F30821CDE9027328463B46BC
:1014000007F0F1FFECE700BF56C400002BCD000051
:1014100054C4000059C4000065C4000091C4000019
:10142000A8C40000D5C4000030B593B000211C2230
:1014300004460BA80A9109F089FB1B48FFF730F816
:10144000C0F1200001282DD91748FFF729F8C0F175
:10145000200220230AAD1946284609F07FFB2146C9
:10146000124804F075FF09AA4FF40061104809F012
:1014700059F8099A0195C2F5006164234B43DB0AD0
:10148000069300254FF40063CDE90413CDE9023241
:101490002046084B084A0095082107F0A4FF28467B
:1014A00013B030BD0122D4E70CC500002D1500009B
:1014B000C02D0020802D002013C5000010B504466B
:1014C00008F0C2FE034A03460821204607F08BFFBE
:1014D000002010BD5CC5000073B5134600220192C8
:1014E000044601AA58680A2108F06DF8019D95B9D3
:1014F00020EAE0744FF40046294640F2E7304FF40A
:101500007A720023C4FB0601FEF756FE05F092FC3A
:10151000284602B070BD2B46034A0121204607F041
:1015200062FF019DF4E700BF72C50000F0B50446FC
:10153000D0F8A06089B00D4607A908F0FFFF034668
:1015400030B1104A0821284607F04DFF09B0F0BD20
:10155000204608F0E3FF0C4F079A002818BF074603
:10156000B11A6423CDE902214B43CDE90076B3FBE8
:10157000F6F3064ACDE9046308212346284607F01E
:1015800032FFE3E7A8C4000056C4000092C5000083
:1015900010B5034600680C46114608B1027822B91E
:1015A000024A204606F0F4F8204610BDAAC6000004
:1015B00010B50C68D1E90112FFF7EAFF034A0346B0
:1015C0000821204607F00FFF002010BDAFC6000025
:1015D0002DE9F0478AB0054601A804F071FD019E8F
:1015E0001B4ADFF87080DFF87090DFF870A01823D6
:1015F00003FB00660821284607F0F5FE019CB44273
:1016000003D300200AB0BDE8F08705AF39461422A5
:101610002046FFF7BDFF424603460821284607F053
:10162000E2FE204608F0E4FE0D4A00280CBF4B46BF
:1016300053460821284607F0D6FE142320460949C0
:10164000049302AACDE90257183408F0DCFED6E76D
:10165000CEC60000D8C60000C5C60000BFC6000048
:10166000DDC60000B11500002DE9F043114BDFF895
:10167000489053F82140013187B053F82180064645
:101680000027A04503D8384607B0BDE8F0832046C0
:1016900008F0AEFE054658B1142201A92046FFF716
:1016A00077FF4A4603460821304607F09CFE2F4646
:1016B0001834E6E7CCBD0000E4C6000010B50821F0
:1016C0000446254A07F08FFE00212046FFF7CCFF95
:1016D00020B9224A0821204607F085FE082120462D
:1016E0001F4A07F080FE01212046FFF7BDFF20B909
:1016F0001A4A0821204607F076FE08212046194A9A
:1017000007F071FE02212046FFF7AEFF20B9134A11
:101710000821204607F067FE08212046124A07F0FC
:1017200062FE03212046FFF79FFF20B90B4A0821E4
:10173000204607F058FE082120460C4A07F053FEC9
:1017400004212046FFF790FF20B9044A08212046D3
:1017500007F049FE002010BDEAC60000F2C60000F6
:10176000FAC6000009C7000018C7000026C700001D
:101770008B1E022B2DE9F04107468846144637D8C8
:1017800060681022002106F031F9B8F1020F064618
:1017900007D1264A20230821384607F024FE336863
:1017A00016E00A220021A06806F020F9C5B21F4AFF
:1017B0002B460821384607F016FEB8F1040F1AD060
:1017C000102D0DD0202DEAD0082D0CD13378DBB2AE
:1017D000174A0821384607F006FE0020BDE8F081D0
:1017E00033889BB2F4E7134A0821384607F0FBFD23
:1017F0006FF01500F2E7E0681022002106F0F6F81D
:101800000D4A034604460821384607F0ECFD102D2A
:1018100006D0202D07D0082DE5D1E4B23470DCE7E6
:10182000A4B23480D9E73460D7E700BF8AC700008C
:10183000B5C700009FC70000C6C700002DE9F04FE4
:10184000574BDFF860A191464FF0FF35012285B07C
:10185000074688461A6020262C464946524640468E
:10186000FEF74CFF411C07D16A1C4FD14E4A0121A3
:10187000384607F0B8FD1CE073281FD0772831D018
:10188000612816D1DFF824B11022DBF80000002116
:1018900006F0ACF805460028DFD108F035FA0368F9
:1018A000162BDAD1DBF80030414A0121384607F027
:1018B0009AFD6FF0150005B0BDE8F08FDFF8ECB0D1
:1018C0000022DBF80000114606F090F804460028DC
:1018D000C3D108F019FA0368162BBED1DBF800302B
:1018E000344AE2E7DFF8C4B00022DBF8000011461A
:1018F00006F07CF806460028AFD108F005FA036828
:10190000162BAAD1DBF800302B4ACEE7631C01D19D
:101910002A4AACE75FFA86F8C6F3C406002C3CD02E
:101920006B4629461A46A6EB050C0CE0B8F1100FE1
:101930001DD0B8F1200F20D0B8F1080F2AD10878B7
:10194000187031443344A64203D80CEB0100102830
:10195000ECD9102CA14628BF4FF0100929464B4660
:10196000384601F01BF81035A4EB0904D6E70888C7
:1019700080B21870000A5870E3E7086818704FEAE0
:10198000102E83F801E04FEA104E000E83F802E0BB
:10199000D870D6E70A4A08216AE720468BE700BFDD
:1019A0001C00002014C800001BC800000C08002008
:1019B000DAC70000EDC7000000C8000038C800000A
:1019C0009FC7000070B5104E044633780D4681B1B4
:1019D0002BB1BDE870400D4A012107F004BD012381
:1019E00033700B4A0821204607F0FDFC01233370B9
:1019F00004E083F001033370002BF2D12946204626
:101A0000BDE8704007F0FCBC4D18002052C8000033
:101A10008DC8000070B504463C480378182B02D1ED
:101A20000B78112B31D0013A0B468D18AB4225D1E2
:101A30008B5C0A780370A2F13003092B344C04D973
:101A400022F02003413B052B04D823683149CA54B6
:101A5000013323602368022B34D110222D4800214A
:101A600005F0C4FF2C4A136803F8010B13602B4ADE
:101A70001368013313600023236023E013F8016B24
:101A8000182ED3D11E78112ED0D1244D244A2B6884
:101A90000821204607F0A7FC20460021FFF792FF0F
:101AA000204B187870B9204A2B681168042B0ADC87
:101AB00008B111602B6013F003010BD11268136899
:101AC0001BBA136070BD086800BA41F8040B043BF0
:101AD0000120EBE75B4203F0030358BF59420229A0
:101AE00004D1126813885BBA9BB2EAE70329E9D1F3
:101AF000106802681104C2F3074301F47F010B432D
:101B000002F47F4213430360DCE700BF4E1800205D
:101B10001808002050180020240800201C0800206D
:101B2000B7C800004F180020200800202DE9F84F0A
:101B30000D462B49DFF8AC80DFF8AC90DFF8ACB095
:101B400000230B602A4988F8003006460B601446D3
:101B5000012D274654F804AF1ED9022249465046AB
:101B600009F01AF880B922689278003A18BF012269
:101B7000924420490222504609F00EF830B9012360
:101B800088F80030013DE3E70022F1E7494650467E
:101B9000FEF77CFCA8B9043700221146786805F0EE
:101BA000A9FE154B002211461860786805F0A2FEC8
:101BB000124B134918603046FFF704FF0020BDE8C0
:101BC000F88F9AF800202D2AE6D19AF80120002AF1
:101BD000E2D053465A460821304607F004FCD1E7CC
:101BE000180800204F180020D1C80000D7C80000F6
:101BF0001C080020D4C80000240800202008002071
:101C0000151A000013B5094808F0F2FB58B1084A4C
:101C100006491268074800240094012300F0A4FD3F
:101C2000204602B010BD6FF01200FAE78CB1000040
:101C300038BE0000D8B3000010B5144642681068E2
:101C4000016011684C6011688B60136891681C68B2
:101C50000023C1E90233C1E905334B600B61D16850
:101C6000C1E90233C1E905334B600B611168CB60F8
:101C7000A36823B19B6C13B1044920469847A3681D
:101C80009B6A0BB120469847002010BDE5900000EC
:101C900007B5064A06481268032300930021012372
:101CA00000F062FD002003B05DF804FB78BE000088
:101CB000ACB3000010B581680446083101F00EFB9A
:101CC000A168034A20460831BDE8104001F096BAE9
:101CD00058CA0000014907F0F0BA00BF0AC5000069
:101CE00037B504468068D0F864325A070D4605D5EA
:101CF000002107F020FBE06807F0D5FEE368DB6811
:101D000073B9002D39D0A068423007F0D0FAA3682B
:101D1000002834D003F1420103F5A17008F034FF2C
:101D2000A268E0680DF106034232294607F0BEFEC4
:101D300058B9A06800F5A171423008F025FFA068ED
:101D4000423007F0B4FAADF80600204607F0F9FC7F
:101D5000A368D3F860329B0603D50A49606907F08F
:101D6000ACFA204601F0A4F8A268BDF80630D3878B
:101D7000A2682046938707F08DFC03B030BD83F83E
:101D80004201CDE725BC000010B5836802221A711C
:101D90008268936B0446DBB982F842308268D3874D
:101DA000826893878368D3F86432DB040BD5032100
:101DB000084B094A07F073FDA0686FF4805100F5E5
:101DC000197007F04FFA2046BDE8104001F086B9BF
:101DD00010BD00BF66CA0000DAC600002DE9F04F52
:101DE000A7B004465422002111A808F0AFFE00233A
:101DF000CDE90533A36820464233029307F0A7FCE0
:101E0000204607F02EFC10B96069FFF763FFA06859
:101E100014220021083008F099FE204600F096FFB9
:101E2000A168E0688A8F4231002607F076FE2046DE
:101E300007F0F5FE4FF0FF37B24603960DF1440868
:101E4000B3463546B146DDE90532012A6DD0132B84
:101E50006ED85FBBBBF1000F0AD0204607F000FF31
:101E6000A2681423423211A90DEB030000F022FEF8
:101E7000B9F1000F0CD099F81130FE2B08D1059B59
:101E800026AA02EB830252F8542C0AB101330593BF
:101E9000A068059D4369002B40F0B680CEB1C368B1
:101EA0009E422DD00D9600F1080524E0029A0223EF
:101EB000414606A800F0FEFD0699D8F804200292DB
:101EC000034631B101290AD148B16F4A204607F0D3
:101ED000E6FC6FF00705284627B0BDE8F08F059BAC
:101EE000002B34D0D8F8000001F01CFA98B166B18C
:101EF000A5680D9608350CAE0FCE0FC533682B6064
:101F00002046FFF7D7FE0125E5E7604A012120467C
:101F100007F0C5FCDDE7059BCBB1D8F800202946CA
:101F2000204601F099FB022809D1059B132B91D97A
:101F3000069B022B8ED1564B564A0121C6E7032839
:101F400005D0059B013305934FF0010B7BE7039B05
:101F500033B9D8F8001007AA484607F0DBFA05465F
:101F600008F10408013F9DB3EB68BBF1000F08D0F6
:101F7000F3B1204607F0EBFB204607F08BFB464A07
:101F8000C4E7ABB1A368DDF814A0AE4603F1080CBA
:101F9000BEE80F00ACE80F00DEF80030CCF80030EF
:101FA000AB682BB96B7CFE2B04BF2F7C07F1FF378E
:101FB000D5F804C0BCF1000F08D0AE46BEE80F0053
:101FC0000CAE0FC6DEF8003033606646A94603E06B
:101FD000059B53B101230393069B17B9022B7FF492
:101FE00032AF059B013305932DE7A368DB6913B17D
:101FF000DB68002BEED1294B0093294A119B01216C
:10200000204607F04CFCE5E7037EA5EB0A05B3B1DB
:10201000417E4FF6FF72FF2918BF0A469D4202D348
:1020200013449D420BD983681E4A0121204607F0C4
:1020300036FC2046FFF73EFE6FF015054BE74FF4E8
:10204000006100F5197007F0FEF8A06800F53E7019
:1020500007F08AF9A36811AA294602EB8A025B6994
:10206000204698470546A0684FF0FF324FF0FF33F7
:1020700000F53E7007F02EF9A0686FF4006100F5DE
:10208000197007F0EFF826E7AACA0000BECA0000E0
:102090001FCB0000E6C60000DCCA00000BCB00002E
:1020A000BECD000043CB00002DE9F04F0446806810
:1020B000B1B0012100F5197007F0C5F8A3681B79CC
:1020C000022B17D100230993A36860689E6B0368F5
:1020D0001D6909ABC6B110221BA9A847099A4AB1CC
:1020E0001BA92046B047A3689B6B002BECD1204670
:1020F000FFF74AFEA0686FF0010100F5197031B0DA
:10210000BDE8F04F07F0AEB801220DF12301A8475A
:10211000099B002BEED09DF923109DF82330A26877
:102120000029D1DB5179032900F20F83DFE811F098
:1021300004008F02A7020D030D2B54D00A2B32D0BE
:10214000B2F864126FF3CA01A2F86412092BA068F6
:102150005CD013D8002BB7D0082B00F0D8815A1CC4
:102160008649A068D2B28A5C12F0970F00F0DB813A
:10217000012107F0E0F89DF82310F5E01B2B42D079
:102180007F2BECD1D0F860329D079DD5012107F05F
:10219000D2F8A368D3F86032190700F1C081204655
:1021A00007F0BFFB90E7D2F86412C1F3C70129B171
:1021B000D2F86412C1F3C7010A29D0D1B2F864126F
:1021C00063F3CA01A2F86412A068818FB9B907F05D
:1021D000B2F8E06807F067FC6069FFF77BFD204616
:1021E000FFF7D2FD70E7D2F86412C1F3C7010029EE
:1021F000E4D0D2F86412C1F3C7010D29DDE720460F
:10220000FFF7ECFDEBE7012343715DE7D0F86032A7
:102210009A077FF559AF012107F08DF8A068838FE9
:10222000FF2B3FF451AFC28F00F1420100F5A170C6
:1022300008F064FCA368DA8F1344002583F8425148
:10224000A2681BA9142302F5A1720BA800F032FCAE
:102250000B9914293FF638AF30AB03EB8103DFF85D
:1022600020A143F8545CA368DA8F134493F84130FB
:102270001AF8033019B11B0751D401294ED100259A
:102280000A950A9B30AA02EB8303002653F854BC3C
:10229000584607F00CF8374602900396B04616AA47
:1022A0004146284600F0E2FC8146002843D1012E39
:1022B00068D10A9B30AA02EB830353F8540C06F052
:1022C000F6FFA268064608323946284600F0CEFCE2
:1022D0000546006806F0EBFF864206D02968821B9F
:1022E00092B23144204607F01AFBA068C38F034422
:1022F00093F842301AF8031011F0080138D1D0F8E1
:102300006032DF072FD507F020F82021204600F0AB
:10231000AFFEA068012107F018F8D5E601390020CA
:102320000CAB009301900AAB1BAA07F01EF90546FF
:102330000028A6D1C8E6029AD9F80000594608F04C
:102340002BFC68B9D9F80000FEF7AAF8039B83427A
:1023500038BF03469BB2002E08BF474603930136A1
:1023600008F101089BE72021204600F081FEABE642
:102370000121204607F0C1F9A6E600BFBED4000047
:10238000BFD400007FF6A0AE0A9A30AB03EB820206
:10239000BA4652F8543C0293184606F088FFA268E9
:1023A0000590A2F830900496A2685146083228465B
:1023B00000F05CFC029B80460AF1010A002B52D11E
:1023C000D8F80030002B58D1A2681386049B013B3B
:1023D0000493E9D16069FFF77DFC204600F07EFEA2
:1023E0000A9B30AA02EB830307F1010953F8540C4E
:1023F00006F05DFF394611AA8046284600F036FCFB
:102400000746A0683968FF2200F5A17008F0D6FBE6
:102410003B6802934FF6FF77BA4616AA494628460C
:1024200009F1010B00F022FC002864D0A1680368C8
:1024300001F24111002211F801EF985C704503D1BF
:1024400010B101325245F6D1B8F1000F01D042452A
:1024500007DBBA4206F1FF36A8BF3A46012E97B213
:1024600049D0D946D9E700680028A9D0059A029931
:1024700008F092FB0028A3D096E7B548069306F033
:1024800016FF039BA26800EB030BB148B2F82A8049
:1024900006F00DFF069B0790184606F008FF1FFA8E
:1024A0008BFBABEB0009A068079A018E069BA8EB9B
:1024B000020898FBFBF81FFA88F801F1010CB1FB48
:1024C000F8F208FB121189B21FFA89F9A0F830C09E
:1024D00059B900939F4A9E4B0621204607F0DFF929
:1024E0004946204600F092FC70E79B4A06212046B0
:1024F00007F0D5F9F4E7002F3FF4E6AD0299A7EB1A
:10250000080292B24144204607F009FADCE5D0F80F
:1025100060329E077FF5D8AD012106F00CFF204602
:1025200007F01AFAD0E5D0F8602292077FF5CCAD1B
:10253000013B162B3FF6C8AD01A252F823F000BFB5
:102540001D2700009D250000A52500009F210000FB
:1025500011270000C3250000C9200000C920000089
:10256000C9200000C9200000CB250000D3250000B1
:10257000C9200000FD250000C9200000072600003A
:10258000C9200000C9200000C9200000C9200000A7
:102590000B260000C92000003F260000204607F05F
:1025A000DDF891E5204607F0D2F8204607F059F80B
:1025B00010B96069FFF78EFBA068012106F0BBFE31
:1025C0000DE6204607F0D2F87EE5204607F0D7F862
:1025D0007AE5D0F860329F0603D56049606906F05D
:1025E0006CFEA368D3F860329E0603D55C4960692F
:1025F00006F063FE204600F071FD65E500212046EF
:10260000FFF76EFB60E50121F9E7204607F099F836
:10261000A268002382F84230A268D387A268938719
:10262000A068012106F087FEA368D3F860329D06FA
:102630007FF54AAD4B49606906F03FFE44E5204610
:1026400000F07CFCA068012106F075FE3CE55B2BE8
:1026500002D10223537137E5D2F86022900706D5E4
:10266000622B08D14FF0FF31204600F0E5FBA36854
:1026700000225A7128E5662BF9D10121F4E70021E7
:102680005171A268D2F8601289077FF51DAD313B08
:102690001B2B3FF619AD01A151F823F019270000BB
:1026A00025270000392700000D270000C920000061
:1026B000C9200000C9200000C9200000C920000076
:1026C000C9200000C9200000C9200000C920000066
:1026D000C9200000C9200000C92000000726000012
:1026E000FD250000C32500009D250000C920000035
:1026F00011270000C92000001D270000C92000008C
:10270000C9200000C92000002927000003235371BD
:10271000204607F01CF8D7E403235371204607F046
:1027200010F8D1E403235371A068D0F8601201F0CF
:10273000010181F00101EEE503235371A368D3F891
:1027400060329B077FF5C0AC29E5002382E700BF1C
:102750002ACD00005ECB0000DAC600002ABC0000D3
:102760002FBC000025BC00002DE9F0430446806822
:102770008846D0F80C1389B015461F46002966D14B
:102780004FF4447208F0E2F9A36822681A60E06826
:1027900007F02BFAA06800F53E7007F0E3FE4FF457
:1027A0002A794FF41A76A068304408F05BF9A068E3
:1027B0000022831901214844103608F036F9B6F595
:1027C0002A7F09F11409EED1A36900261E60A068D2
:1027D000022100F5197006F036FDA36850225A85D3
:1027E000A36818221A85A368186806F060FDA3681C
:1027F000184A83F82C00A36866F38205C3F8605278
:102800006068036841461D682346A8470546D0B95D
:10281000A36801221A71D4E9090100220023CDE93D
:1028200006230E230393109B0495CDE901730094B6
:10283000094B4FF4006203F087FEA368C3F80C0352
:10284000216A03F0BDFD284609B0BDE8F0836FF0B2
:102850007705F8E7D9920000B128000010B50446CA
:1028600080680379012B1DD14FF0FF324FF0FF3309
:1028700000F53E7006F02EFD2046082100F020FBFA
:10288000206806F014FD18B10849606906F015FDCE
:102890002046FFF779FAA06800F53E7006F064FD67
:1028A000002010BD6FF08500FBE700BF09C50000E8
:1028B000F8B504464068036800219B6898470028E3
:1028C0003FD12046FFF7CAFF00283AD11D4E1E4FC8
:1028D000A06800F52A704FF0FF324FF0FF3303215C
:1028E00004F098FC0546A0684FF0FF324FF0FF332C
:1028F00000F53E7075B106F0EDFC20462B46134AFC
:10290000012106F0CCFFA068BDE8F84000F53E705C
:1029100006F02ABD06F0DEFC32460221204606F013
:10292000B0FC20463A46294606F0ABFC60680368D6
:102930005B6903B19847A06800F53E7006F014FD8E
:10294000C6E7F8BDED920000A920000064CB0000AE
:1029500010B50D4A0446082106F045FD20460B4AF5
:10296000082106F040FD2046094A082106F03BFDFB
:102970002046084A082106F036FD2046064A002176
:1029800000F03CFC002010BD7BCB0000B9CB000068
:1029900018CC00006CCC000006CD0000F8B51E4637
:1029A00017460B462F4A0821044606F01CFD6EB35D
:1029B0003B782D4A0821204606F015FD01256A07BF
:1029C00004D12A4A0821204606F00DFDAE4223D943
:1029D0007B5D254A0821204606F005FD0135102DB6
:1029E000EDD1234A0821204606F0FDFCD6B91F4A46
:1029F0000821204606F0F7FC0125AE422B4613D8ED
:102A00001A4A0821204606F0EEFC19E0194A08216E
:102A1000204606F0E8FC0125164A0821204606F06B
:102A2000E2FCDBE700252B46FB5C134AD25C12F08C
:102A3000970F08BF2E23114A0821204606F0D3FC29
:102A40000135102D07D06B07D7D1084A0821204641
:102A500006F0C9FCD1E72046094ABDE8F840082144
:102A600006F0C1BC1CCD000023CD00002BCD000022
:102A70002DCD000029CD0000BFD400004FCD0000B7
:102A80002FCD000013B513460446002200920A46DB
:102A900001460748FEF756F823691B792BB12046FB
:102AA00002B0BDE8104006F0AEBC02B010BD00BFE1
:102AB0001F9400002DE9F04F85B00026DFF8A8A193
:102AC00001910746144699460660B3462378002BC9
:102AD00000F0C6801AF8033013F0080304D004F89D
:102AE00001BBF3E70026F1E73A68511C3960019910
:102AF00041F822403A684A4500F0B2801E462178EB
:102B00000029E3D0A6B90E4623461C46272E04D042
:102B10005C2E20D0222E40F09780204606F09DFCAF
:102B2000611C0246204607F0F7FF21780029CDD02E
:102B3000B142A04604F101041BD1404606F08DFCD1
:102B400021460246404607F0E7FF98F800604446F9
:102B5000002ED9D1BAE7204606F07FFC651C02465C
:102B60002946204607F0D8FF66782C46002ECDD1A6
:102B7000ACE75C2998F80110D8D1B1428C4608D155
:102B8000404606F06AFC21460246404607F0C4FF74
:102B9000B5E7302925D10025022218F802C0ACF192
:102BA0003000C0B2072819D8ED000132EDB2052A75
:102BB00045EA0005F1D1511E41444046039202917D
:102BC00006F04BFC039A0299023A821A404607F03B
:102BD000A3FF98F8011088F80050A7E7D2B2022AA4
:102BE000E9D1BCF1780F2AD10025022018F8002085
:102BF000A2F1300C5FFA8CFCBCF1090F09D82D0151
:102C0000EDB24CEA0505022801D00422D3E70320E7
:102C1000ECE7A2F1610CBCF1050F05D82D01EDB276
:102C2000573A1543EDB2EEE7A2F1410CBCF1050FA6
:102C300003D82D01EDB2373AF3E7022802D108F1AB
:102C4000010473E70322B6E71AF806301B073FF5C5
:102C500049AF6678631C002E7FF457AF1C4635E7FA
:102C6000304605B0BDE8F08FBFD4000038B50B4644
:102C7000154648B91449154A521AB3EB920F05D2BA
:102C800051F82350284638BD84680CB90025F9E76F
:102C90000F4A94420AD30F4A944207D21846226838
:102CA000294690472B68002BECD1EFE70A4A944263
:102CB00002D30A4A944205D3246814225343E518E8
:102CC000E358F0E70133F8E704B4000028B400004B
:102CD0003CB400003CB4000028B400003CB4000048
:102CE0002DE9F843074606F0B8FB064637BBBDE8BA
:102CF000F88354B18AB2B21A0130013239443844EF
:102D000007F00AFF341BA6B24446731E9D42EEDA5A
:102D1000284601353B5C19F803301B07ADB2F4D5EA
:102D200029468BB29E42F0D97B5C19F8038018F0DB
:102D30000808DED001340131A4B2F2E70025DFF843
:102D400008902C46E1E700BFBFD40000F8B58468C6
:102D500094F84230054653B9AB689A8FDA87F8BDCC
:102D6000013A92B2A2872AB984F84220F4E7124EBF
:102D700004F14200A28F831813F8013CF35C13F0B6
:102D80000803EDD183549AB210FA83F110F802C00F
:102D900016F80CC01CF0080F1F4603F10103F2D116
:102DA000BFB2002FD8D0A68F731C9A1AF61B07F05B
:102DB000B3FEA687D0E700BFBFD400008368D3F876
:102DC00060329B0603D50249406906F029BC704772
:102DD00035BC0000014906F023BC00BF0AC5000055
:102DE0000A1E0DDC0ED042238168D1F860128906DC
:102DF00008D5002A04494069B8BF524206F010BC09
:102E00004123F1E7704700BF4BCD00000A1E0DDCE7
:102E10000ED044238168D1F86012890608D5002AB3
:102E200004494069B8BF524206F0FABB4323F1E7B8
:102E3000704700BF4BCD00002DE9F0410C1E064647
:102E400031DA644224B24FF0FF35DFF86080A4B27B
:102E5000AFB212E0B368DA8F03F1420C9B8F1146D8
:102E6000002071B9B5F1FF3F00D073B9891A09B2DA
:102E7000304606F042FC013CA4B2002CEAD1BDE889
:102E8000F0818B4201D1012DF0D01CF801E018F83F
:102E90000EE01EF0070F04D10028E7D1394489B2B3
:102EA000DFE70120FAE70125CFE700BFBFD400002C
:102EB000826802494069423206F0B2BBDAC60000BD
:102EC00008290A4617D8836893F82E10914212D029
:102ED00083F82E208368082AD3F8603205D099063B
:102EE00009D50549406906F09BBB9B0603D50349FC
:102EF000406906F095BB704752CD00003ABC000017
:102F000038B50D4609780446FFF7DAFF6A78072AD4
:102F100011D8A36893F82F1091420CD083F82F207A
:102F2000A368D3F860329B0605D560690249BDE805
:102F3000384006F075BB38BD5BCD0000F8B583683E
:102F40009A8FD98F0446002A50D000294ED04131A3
:102F500003F142050B441846A84206D3014611F876
:102F60000169202E39D0A84239D286B29DB2AB1B5E
:102F70009BB2591C471CD21A0144384607F0CCFDBD
:102F8000A268938F711B13FA81F39387A3689A8FBA
:102F90001344002283F8422009B2204606F0ADFB1C
:102FA000A368D3F860329A0603D51149606906F028
:102FB00037FB3B460F4A0821204606F070FC2046AE
:102FC000FFF7FCFEA368D3F860329B060ED560695C
:102FD0000949BDE8F84006F023BB0846BCE70146B6
:102FE00011F80169202EC0D00846BCE7F8BD00BF2B
:102FF0003FBC0000DAC6000043BC00002DE9F041F0
:1030000004460D4617460AB1FFF7D8FEA368DA8FCB
:10301000D3F86012423213444A071FD51846FDF711
:103020003FFADFF84480064696B9A3689A8FDA879C
:10303000204606F002FB20B107B115B16069FFF729
:10304000C9FE6942204609B2BDE8F04106F055BB11
:103050006069414606F0E4FA013EE5E7034A0821CB
:10306000204606F01CFCE0E754C40000DAC600006D
:1030700013B583688DF80710D3F860220446D00793
:1030800022D5D98F9A8F8A421ED0481CD8870B44EC
:103090009DF8072083F84220A368D3F860128907BF
:1030A00010D5D3F8603260690B4913F0040F18BFD4
:1030B0002A2206F0B5FA204606F0D3FA10B160696C
:1030C000FFF788FE02B010BD01220DF10701204676
:1030D00006F0F2FBF6E700BF4FCD000010B58368A5
:1030E000094A1B680446022106F0D9FBA368D3F8FD
:1030F00060329B0707D52046FFF7DAFE2046BDE881
:10310000104006F0D7BA10BDDAC60000014906F03B
:1031100034BC00BF0AC500002DE9F04705469046C3
:103120000E46002965D0DFF8D0900024335D19F8F1
:1031300003301A071ED43046FDF7B2F9AB685A8D3A
:1031400080B2001BA2EB0803984206EB040A13D9D5
:103150005146002711F8010B19F800C01CF0080FA8
:1031600002D00A282DD03B4608EB0700824227D91F
:103170000137EFE70134D9E753460027B84214D0AE
:1031800013F8012B0A2A19D1686906F03CF9514657
:103190003A46284606F018FB6869FFF7B7FF013486
:1031A000414628463C44FFF731FE6869311906F074
:1031B000E4FB6869BDE8F047FFF7A8BF0137DDE72A
:1031C0001F46686906F01FF93A465146284606F040
:1031D000FBFA3C44335D19F803301B0707D46869D8
:1031E000FFF794FF41462846FFF710FEA3E701349E
:1031F000F0E7BDE8F08700BFBFD400002DE9F04F35
:103200008BB004460291002116460D46029805AA8D
:1032100001F10108FFF72AFD98B97DB126B13246C8
:103220000821204606F03BFBDFF8A480002102982D
:1032300005AA01F1010BFFF719FD60B90BB0BDE85C
:10324000F08F006810B1FDF72BF980B2854238BFCE
:1032500005464146DAE7D0E9007A4046FDF720F915
:103260008146B7B13A78A2B13846FDF719F9202264
:103270002E1A8DF813200097164A4346082120463F
:10328000B6B206F00CFBBAF1000F1FD16069FFF770
:103290003DFF5946CBE701220DF113012046039370
:1032A00006F092FA039B01339AB29642F3D8204675
:1032B000094A4346082106F0F2FA6A1C02EB490269
:1032C00092B251462046FFF727FFE2E70023EBE7E3
:1032D00076CD00005FCB000064CD0000F7B5064658
:1032E00008680D46B8B1FDF7DBF884B20B4F3846DD
:1032F000FDF7D6F800972B68094A044408213046A8
:1033000006F0CDFAA4B269682246304603B0BDE8A3
:10331000F040FFF701BF0446E8E700BF72CD0000B0
:103320005FCB000010B507490446FDF7AFF838B190
:1033300005492046FDF7AAF8B0FA80F0400910BD13
:103340000120FCE768CD00006BCD000010B583685C
:10335000D3F860329B06044603D50649406906F05F
:103360001DFBA36850225A85A36818221A850020E5
:1033700010BD00BF47BC000008B58369034A1B6845
:10338000082106F030F8002008BD00BF79CD00000C
:103390002DE9F3410E4A0F4C0F4EDFF84080082113
:1033A000054606F020F80023B44203F1010703D3D9
:1033B000002002B0BDE8F081A268126800929BB2C2
:1033C00042460821284606F00EF82C343B46EBE72F
:1033D00089CD0000ACB3000004B40000A1CD000012
:1033E0007FB50F4E04460025A268E0680DF10E037C
:1033F00002F5A172012106F059FBBDF80E00A36889
:1034000050B103F5A173009332462B4608212046A4
:1034100005F0E9FF0135E7E783F8420104B070BD2C
:10342000ADCD0000022907B50DD1536801930E4BB5
:10343000009313680D4A012105F0D5FF6FF01500C8
:1034400003B05DF804FB8368094AD3F8603213F0D7
:10345000020F4FF00801074B08BF1346064A05F05C
:10346000C2FF0020ECE700BFC4CD0000BBCD0000D0
:10347000B7CD00006AC60000D9CD000010B5836842
:10348000D3F860329A06044603D50749406906F02E
:1034900085FAA368D3F860329B0603D503496069B7
:1034A00006F07CFA002010BD4EBC000053BC0000AA
:1034B000F0B5012985B004460CD053680193604BE8
:1034C000009313685F4A012105F08DFF6FF015002E
:1034D00005B0F0BD8368D3F86032990603D55A4928
:1034E000406906F05BFA6FF0F9012046FFF778FCBF
:1034F000FA212046FFF78AFCA06800254FF480726D
:10350000294600F5A1708DF80B5007F01FFB4F49BD
:10351000606906F043FA606905F075FF4FF47A764A
:103520006068036801221F690DF10B0103ABB84706
:10353000039BF3B9013E4FF47A70B6B207F040F93D
:10354000002EEDD1A368D3F860329B0603D5404925
:10355000606906F023FAA36850225A85A3681822EE
:103560001A8520463B4A032105F03DFF6FF0070016
:10357000AEE79DF80B20A3681B2A53D093F84211A5
:103580001B29CDD1522A4DD15A19002382F842313C
:10359000A66896F843215B2A2BD106F24310022538
:1035A00010F8011F2A463B2905F10105ADB223D1D0
:1035B000FF2AC7D002F5A17216FA82F1002211F893
:1035C000010F18BB86F84201FA2AA16828BFFA2227
:1035D0004A85FA2BA26828BFFA231385A368D3F87B
:1035E00060329A0603D51A49606906F0D7F90020BF
:1035F0006EE786F84231A5E703EB8303303901EB30
:103600004301B5F5807F8BB2CAD19BE7013502EB50
:103610008202ADB2303800EB4200B5F5807F82B255
:10362000CDD18FE72B440135ADB2092D83F842216E
:103630007FF676AFA368002283F8422182E700BFBD
:10364000C4CD0000BBCD000059BC000024CE00005A
:103650005DBC0000EACD00002DE9F04F074689B0BF
:103660001546894621B90324204609B0BDE8F08FEC
:10367000104606F0C0FA0028F5D04FF00008414689
:10368000022424E05C463CE029460AF5A17007F0DC
:10369000B4FA064600284CD0FCF702FF82B2601C48
:1036A00001323146304407F037FA22465946304657
:1036B00007F024FA4FF020033355BAF840300133B5
:1036C0001C44AAF8404008F10108002401994B1C51
:1036D00003AA48460193FFF7C9FA0646E8B13168E4
:1036E0000022284605F094FC0028EFD1D6F800B05F
:1036F000D7F808A0BBF1000FC4D05846FCF7D0FEA5
:1037000084B2BAF840302344FF2BBDDD0A4A2B4671
:103710000321384606F0C3F80124B8F1000FA3D006
:10372000B8682A4600F1400100F5A17005F0CBFE13
:103730009AE70224F1E700BF13D200002DE9F84315
:1037400005464FF02003EFF3118683F31288BFF391
:103750006F8F0E4B0E4F1C68DFF838804FF00C094E
:103760002CB986F31188BFF36F8FBDE8F883D4E9D5
:103770000123002D18BF13462BB198F8142009FB24
:1037800002F2B85C98472468EAE700BFB00F002057
:10379000A40F00202416002070B5194B1C7DBFF328
:1037A0005B8F04F01F0301229A40164B610903EB63
:1037B0008103D04353E8001F01EA000543E80056A7
:1037C000002EF7D1BFF35B8F0A4213D00E4B0F4D83
:1037D0008BB10C236343EA18E85C517806F0A2FA37
:1037E0000020FFF7ABFF0C235C432A1900232B5169
:1037F000C2E9013370BD83F31188BFF36F8FEFE728
:1038000024160020B80F0020259D0000A40F0020E2
:103810002DE9F041354B07461D7D4FF02003EFF3B6
:10382000118883F31288BFF36F8F0C24304B314E15
:103830006C431A19195D00294CD007CA06EB040C19
:103840008CE8070000221A5588F31188BFF36F8FA8
:103850000C236B43F218F05C002839D07B1C10D08D
:10386000D2F808C0244C254A4FF400400021ECFB5C
:10387000004100232046FCF79FFC0121381A06F086
:103880007DFF03F019FA0120FFF758FFBFF35B8FAC
:103890001B4B6A0903EB820305F01F0101228A40DA
:1038A00053E8000F104343E800010029F8D1BFF3AB
:1038B0005B8F144B3BB10C2303FB05F03318305CDA
:1038C000597806F023FAFFF767FF03F009FA0120A1
:1038D000BDE8F0810146284600F016F80028B3D074
:1038E00007C8344484E80700AEE700BF2416002070
:1038F000980F0020A40F00203F420F0040420F000D
:10390000B80F00200D9D00002DE9F04F85B00E4648
:1039100003A900F043F81E4B039DD3F800A0DFF885
:103920007480431E1BB203EB4303044605EB83057F
:103930004FF400474FF0000B24B9A146484605B0AC
:10394000BDE8F08F6868144AC4465946E0FB07C1D9
:1039500000236046FCF730FC0190A8680E4AC4467C
:103960005946E0FB07C100236046FCF725FCBAF18D
:10397000FF3FA94601D0824505D9731CDED0019BCB
:103980001844B042DAD9013CA4B20C3DD4E700BFE0
:10399000E80000203F420F0040420F0008B9024BF0
:1039A0000B600020704700BFB4C00000014804F065
:1039B00033BE00BFB4C0000038B5044618B90F4B81
:1039C0000F485B6898476168B1F5683F0FD0B1F563
:1039D000680F0CD00B4DA94209D011F4686107D0D3
:1039E0000948214606F06AFD00232360656038BD62
:1039F0002068142207F0AAF8F8E700BF7802002038
:103A000068D200002C5F5CA9BC14002008B520B36C
:103A10004368B3F5683F10D101220368BFF35B8FA1
:103A200053E8001F002903D143E800200028F7D104
:103A3000BFF35B8F0DD1002008BD094A93420AD025
:103A400000684FF0FF324FF0FF3302F025FE0028F0
:103A5000F1D00448F0E70448EEE76FF4E040EBE70C
:103A60002C5F5CA9E98FFFFFEA8FFFFF08B5D8B193
:103A70004368B3F5683F10D100220368BFF35B8F42
:103A800053E8001F012903D143E800200028F7D1A3
:103A9000BFF35B8F0BD1002008BD074A934208D0CB
:103AA000006802F073FEF6E76FF4E040F4E70348C5
:103AB000F2E70348F0E700BF2C5F5CA9E98FFFFF46
:103AC000EA8FFFFF10B5044618B91D4B1D485B680F
:103AD00098476368B3F5683F2FD0B3F5680F2CD0D3
:103AE000194A934219D1236803BB18484FF0FF329B
:103AF0004FF0FF33214602F0FDFB08B923681BB9E4
:103B00000F4B13485B68984720681422002107F088
:103B10001DF84FF46863636008E0B3F5683F0DD8A3
:103B20003A2B03D040F6BA629342DED1206806F009
:103B300019FD636843F03A03636010BD054AF3E77B
:103B40007802002068D200002C5F5CA9BC14002021
:103B50008ED200003A00003A08B5064906484023D4
:103B6000142206F09DFCBDE808400449044804F016
:103B7000C5BD00BFBC0F0020BC140020BCC00000AD
:103B8000D0C00000014910220A60704710ED00E02B
:103B900072B6404080F31188BFF36F8FBFF34F8F31
:103BA00030BF62B6BFF36F8F704700BF72B6494037
:103BB00081F31188BFF34F8F20BF80F3118862B665
:103BC000704700BF40B2002807DB044A41090123C7
:103BD00000F01F00834042F82130704700E100E010
:103BE000054B420900F01F0053F82220012303FA7D
:103BF00000F01040704700BF00E100E040B2002834
:103C0000A8BF00F1604001F10101B8BF064B4FEAC7
:103C10004111ACBF00F5614000F00F00C9B2B4BF64
:103C2000195480F80013704714ED00E030BFFFF71F
:103C3000FDBF00BF0B4A08B50B4B22F07F029A6014
:103C4000BFF34F8FBFF36F8FD3F8882022F4700239
:103C5000C3F8882002F084FA03F082F900F0E2F958
:103C600002F0C6FA0000000000ED00E00A4A0B492D
:103C700093680968C3F8B0100949C3F8AC004B68F1
:103C800043F080534B60002383F31188BFF36F8FA1
:103C90009368D3F8B00070472416002074C2000067
:103CA00000ED00E013498A684FF030001044EFF354
:103CB000098C80E8F01F202080F31288BFF36F8FFB
:103CC0000D4F4FF00066CA698A603E60D2F8AC00C2
:103CD0000023C2F8AC3080F3118804B5104600F020
:103CE00045FABDE8044002F1300090E8F01F8CF383
:103CF000098870472416002004ED00E01EF0040F30
:103D00000CBFEFF30880EFF30980816911F8021C02
:103D10000229FFD001B505F0B8FF01BD42F8203CF3
:103D2000009B42F81C3C0A49019B42F8183C029B4C
:103D300042F8143C21F001014FF0807342F8043C3A
:103D400042F8081C0023203A0265C0F8AC307047E6
:103D50009B8900000A4A0346906878B113F1160F58
:103D6000D0F89C0005D0A0F140029A4205D88342C9
:103D700003D2814228BF002070470020704700BF57
:103D80002416002008B5094B98600D46144600F033
:103D9000EDF9204685F30988002163B681F3118887
:103DA000BFF36F8F0022002304F0F7FD24160020DC
:103DB00001B572B60B4A906900281EBF00219161BF
:103DC00006F0C1FB62B6EFF30580A0F110004FEAE8
:103DD000C0000549014409C99847BDE801400349AD
:103DE0000847000024160020A4B10000F13D0000A7
:103DF000044B9968D869884203D003494FF0805238
:103E00000A6070472416002004ED00E070B51D4BD9
:103E100015469A6A9A6A9A6A9207064622D5586B9C
:103E20009A6A14061ED519B19A6A22F080029A6223
:103E30009A6A9A6A9A6A134C12F0100F15D19B6A0B
:103E4000990712D40020A36A0E4A9B0642BF636AF8
:103E500023F400536362936A43F0FF0393620023E9
:103E60002B7070BD6FF01500E2E763681A05E9D5A5
:103E70003146FFF76FFF0028E4D080F30988022065
:103E8000E1E700BF00ED00E00D4B9A6A9A6A9A6A7A
:103E9000920508D59A6B9A6A120404D518B19A6AE9
:103EA00022F400429A629A6A9A6AD205044A58BF7A
:103EB0009B6A936A002043F47F43936208707047C3
:103EC00000ED00E0F0B54D4B5B688BB00446C3F3EA
:103ED0000803002585F31188BFF36F8F02F07F4040
:103EE000B0F17F4F11D102F00C0008280DD010075F
:103EF0004CBF0C4601250022033B8DF80720032B05
:103F00004DD8DFE803F0046B6F732C46F3E73B4BAF
:103F1000DA6A910743D4DA6A002A40DBDA6A52008F
:103F20003DD55A69A16942F480725A61BFF34F8F3F
:103F3000BFF36F8F5A6931F8021C22F480725A6104
:103F4000BFF34F8FBFF36F8F4DF60272914209D0CE
:103F50009A6AD2B242B10DF1070201212046FFF761
:103F600055FF0AE023681BE09A6A12F47F4F06D0DF
:103F70000DF107010120FFF787FF034610E09A6A61
:103F8000B2F5803F0BD39A6A9A6A9A6A9A6A9A6AD9
:103F90009A6A9A6A6FEA02426FEA12429A620023B0
:103FA0009DF80720C2B902AE04F1200720686168BD
:103FB000324603C20834BC421646F7D1099ABDB155
:103FC000C2F3080121B96FEA52226FEA4222099234
:103FD00002A9184605F057FE0BB0F0BD0DF107021F
:103FE0000021BBE70DF107010020C4E7034BCAE73E
:103FF00022F4FF7222F00102E9E700BF00ED00E0C9
:10400000024A536943F010035361704700ED00E02A
:10401000EFF30880EFF3098101B57246FFF752FF15
:1040200001BD00BF044800232021C2180133302BFA
:1040300082F80013F9D1704700E100E0002080F31E
:104040001488BFF36F8FFDF741F900201149086014
:10405000BFF34F8F104880F3088800F033F820201A
:1040600080F311880D484FF0AA014FF4046206F066
:10407000FDF90A484FF40461401880F30988EFF312
:1040800014800221084380F31488BFF36F8FFFF779
:10409000D1FD000094ED00E0403B0020802D002089
:1040A0000749D1F890200023C2F307221846934213
:1040B00000DB7047C1F89830C1F8A0000133F6E783
:1040C00000ED00E008B572B6002383F31388FFF714
:1040D000E7FF144B4FF0FF32C3F88020C3F8842071
:1040E000C3F88820C3F88C20C3F89020C3F894202C
:1040F000C3F89820C3F89C20C3F88021C3F884211A
:10410000C3F88821C3F88C21C3F89021C3F8942107
:10411000C3F89821C3F89C2162B6BFF34F8FBFF359
:104120006F8F08BD00E100E0084B9B6883420BD114
:10413000EFF3058343B1064B5A6842F080525A6050
:104140005A6A22F400425A6202F094BE24160020F9
:1041500000ED00E0024B034A0348012100F072B871
:104160000000042000000020E0C00000D0F89C20E7
:10417000054B403A1A60054A4021C3E9011218462E
:10418000012100F069B800BFD814002000000B1511
:10419000F0B5204E00258D4239DA446874B353B12E
:1041A00004F1FF3C14EA0C0F2FD11F2C2DD9076806
:1041B0001CEA070F29D1202C0768D0F808C05FFA45
:1041C00082FE1ED9B4F1004F1DD8013CB4FA84F42C
:1041D000C4F11F046400BEF1070F4CEA040C14D8AC
:1041E00027F01F04144344F01004C6F89820C6F8C2
:1041F0009C404CF00104C6F8A040013201350C305F
:10420000C9E70824E7E73E24E5E76FF0150210460A
:10421000F0BD00BF00ED00E0044B0522C3F8942080
:10422000BFF34F8FBFF36F8F704700BF00ED00E00B
:10423000BFF35F8F024B0022C3F89420704700BF8A
:1042400000ED00E010B5034C01232278FFF7A0FF3A
:10425000207010BD8E18002008B5094A002312787E
:10426000FFF796FF10F1160F02D0064A072800DD6F
:1042700008BDC2F89800C2F8A0300130F6E700BFD0
:104280008E18002000ED00E014490868082810B5D9
:1042900021D8FFF7CDFF124C49680022904201F16E
:1042A0000C0105D10F4B1870FFF7B6FF002010BDB1
:1042B000C4F8982051F80C3C23F01F03134343F03B
:1042C0001003C4F89C3051F8043C43F00103C4F8D7
:1042D000A0300132E2E74FF0FF30E8E7ECC0000029
:1042E00000ED00E08E180020014B1860704700BF01
:1042F00010010020F8B5084F06460D460024AC42D8
:1043000008DA3B6898470A28305504F1010401D0C7
:104310000D28F4D12046F8BD0C010020F8B50A4F55
:104320000D46461EC0F10104A3199D4201DC28463A
:10433000F8BD73780A2B02D13B680D2098473B6883
:1043400016F8010F9847EFE71001002010B5074C51
:104350002368C2180648C0F1005101F580218A4245
:104360003ABF2260C0184FF0FF3010BDE4140020A7
:10437000F047002008B51D210448FFF7CFFF40405B
:1043800080F311884FF0030002DF00BFBFD20000AE
:1043900010B54FF02003EFF3118083F31288BFF3C1
:1043A0006F8F114A0123C2F840354FF080424FF021
:1043B0008051C2F87835D1F83041082C08D1D1F8B5
:1043C0003411052904D8094C615C09B1C2F83836AA
:1043D0004FF080430122C3F8802580F31188BFF39A
:1043E0006F8F002010BD00BF00E00140ECD2000044
:1043F0004FF08043C0B2C3F81C05BFF34F8F05498F
:10440000054BCA6802F4E0621343CB60BFF34F8FE1
:1044100000BFFDE700ED00E00400FA0520B1034B0A
:10442000800143F001031847704700BF70BC0000D3
:10443000084B70B5C31A0D4607499B1004465943F3
:104440000648402205F090FC2B4601462046BDE878
:1044500070401847FC140020B76DDBB62CB100008B
:1044600073B50C4C0C4A4023041B00930D460B46BD
:104470000A49A41061430646094805F0A2FC011E42
:1044800005DA30462B4602B0BDE87040184702B04E
:1044900070BD00BFFC1400202F9E0000B76DDBB67E
:1044A0002CB1000010B506F089F94FF47A72A0FB28
:1044B0000203074C02FB0131C00B40EA4140C90B2B
:1044C000C4E900010120BDE8104005F0F3BE00BFC3
:1044D00000050020002270B5012104461046FFF7B8
:1044E0008DFB0F4801F0D6F90E4B984215D105F01F
:1044F000D4FE26690C49304604F00DFB00280BDB86
:10450000012535642469084904F11C0004F003FB0B
:10451000002801DBE564002070BD6FF00400FBE7BC
:10452000614500000000AD0B0CC1000070B50146F4
:104530000C2309484B43C418D4E90E5600224033DB
:10454000A263184405F0FDFB2DB132462B4603480B
:10455000BDE87040184770BDFC1400202CB100006D
:1045600010B1012804D07047034B1B6C5B0701D1CD
:10457000FFF7DCBF704700BFFC14002008B54FF008
:104580002003EFF3118183F31288BFF36F8F114A79
:10459000136843F002001060DA0707D481F3118832
:1045A000BFF36F8FBDE80840FFF77CBF4FF080433B
:1045B000D3F80C24D3F80C34D307EFD5064805F014
:1045C000C0FB81F31188BFF36F8F0020BDE8084066
:1045D000FFF7ACBF4C1500203C1500207FB5002232
:1045E0000123CDE9022304ABCDE90433094ACDF818
:1045F00000D06B46CDF804D005F012FC002805DB96
:104600004FF480420023684602F024F907B05DF8B9
:1046100004FB00BF4D9E00002DE9F74F4FF080488E
:104620000546D8F8186406F480364FF02003EFF3FF
:10463000118783F31288BFF36F8F06F0BFF84FF432
:104640007A72A0FB024302FB0133E40BD8F80C940E
:1046500044EA4344D8F80C34234BD3F800B0234B3E
:10466000D3F800A087F31188BFF36F8F204ADFF8DB
:104670008480214F2846082104F0B5FE19F0010F6F
:10468000DFF878901E4AB9F81A30009328460CBF1C
:1046900043463B46082104F0A6FEA4EB0B0300931F
:1046A00028465B46174A0821A4EB0A0404F09BFE47
:1046B00053462846144A0094082104F094FE2846E4
:1046C000124A082104F08FFEB9F8363000932846CC
:1046D0000B4A002E0CBF43463B46082104F083FEE4
:1046E000002003B0BDE8F08F00050020F804002092
:1046F000FBD20000F6D200000BC50000FC14002025
:1047000006D3000020D3000042D3000063D3000092
:1047100010B506F053F84FF47A72A0FB0203074C71
:1047200002FB0131C00B40EA4140C90BC4E9000162
:104730000120BDE8104005F0F9BD00BFF8040020DD
:1047400010B54FF02003EFF3118483F31288BFF309
:104750006F8F074A136823F00201DB07116001D451
:10476000FFF7D6FF84F31188BFF36F8F10BD00BF32
:104770004C1500202DE9F0413849BFF35B8F074607
:10478000012251E8003F41E800200028F9D1BFF3A1
:104790005B8F33B9324933484B60CB608A6004F099
:1047A000CDF97B1E012B2BD8012F07D14FF0804371
:1047B000D3F81C3403F00303012B21D005F0A8FE2D
:1047C0000546F8B9284B1B78E3B14FF0804302222D
:1047D000C3F808230646DFF894804FF08044D4F8ED
:1047E0001834D4F81824D20316D503F00303012B90
:1047F00001D0012F10D15DB386F31188BFF36F8F05
:10480000BDE8F0814FF02003EFF3118683F31288A7
:10481000BFF36F8F0125DEE7ADB13046FFF7C6F974
:10482000D4F81835002BDAD1D4F80421002AD6D0D8
:10483000C4F80431D4F804310123C4F81835C8F899
:104840008031A360CBE70021212002F0F3FAE7E7F3
:104850004FF080430222C3F80423D1E7F81400206C
:10486000E814002018150020E31C002000E100E0FF
:1048700008B5074805F0BCFD38B10648FFF734FD20
:104880000448FBF7DBFF002008BD6FF01200FBE7D8
:104890008CB10000994800000A2838B5074D04463D
:1048A00004D1AB680D215B6828469847AB68034884
:1048B0005B68E1B29847204638BD00BF8CB100006C
:1048C00030B54068057B01F01F04B2F5001F85B0CC
:1048D00044EA451405D1204601F05EFA002005B0F7
:1048E00030BD0025B2F5800FCDE9025514D1B3F1EA
:1048F000007F0CBF042305238DF8083000231946E0
:1049000002AA204601F086F81F4B984239D10121B6
:10491000204601F0F9F9E1E7B3F1C06F26D0B3F119
:10492000007F14BF012302238DF808308368CB4039
:10493000D907E3D4B2F1A07FE0D16209012A04F0E3
:104940001F03124A03F5E07318BF4FF0A04252F85C
:104950002330DB07D2D40DF107052946204601F0AC
:104960007FF90B4B984203D00395C7E70323DBE79E
:10497000284601F0C3F9044B9842F5D06FF00B00C4
:10498000ADE76FF01500AAE70000AD0B0003005083
:104990000400AD0B10B501F0A1F9044668B901F0AF
:1049A00075F9084B98420AD10748214601F052F99F
:1049B000224605210620FFF721F9002010BD6FF0E7
:1049C0000400FBE70000AD0BCD490000420970B5C3
:1049D000034602D0012A17D070BD0D4E32695168CE
:1049E0000029F9D003F01F0301250C689D40002920
:1049F000F2D08A682A4002D04B68304698472CB1E2
:104A0000236821461C46F2E7024EE7E72346F8E713
:104A10005CB1000044B100002DE9FF4147683B7BD9
:104A200001F01F0545EA43150E4628460DF1030126
:104A3000144601F015F914F4403F80460BD1284686
:104A400001F0D2F93D4B984503D19DF8030001F0E8
:104A50004FF900200CE00023194602AA2846CDE9B0
:104A6000023300F0D7FF354B984204D06FF01500A9
:104A700004B0BDE8F081804503D19DF8030001F04A
:104A800037F9A3034BD540F206332340B3F5837FB8
:104A900019D00CD8062B17D004D8ABB1022BE5D116
:104AA000042311E0B3F5807FE0D101230CE040F254
:104AB0000222934227D0B3F5407F26D0B3F5007F82
:104AC000D4D1022300E007238DF8043084F480332E
:104AD000C3F30043E0068DF8053054BFC4F3401320
:104AE000032321038DF8063011D57A680123B340E2
:104AF000C2F80835002201A9284601F039F80F4B09
:104B00009842A6D0B2E70523DEE70323DCE7620381
:104B100041BF01237A68B340C2F80C35EAE7E306E7
:104B20004FF0000354BFC4F3401403241A4601A9F4
:104B300028468DF8044000F06DFFE0E70000AD0B63
:104B4000F0B54B79012B26D0032B21D110258B7981
:104B5000032B1DD1CE790EB1012E19D10A7912B1D4
:104B6000022A15D10E220B684468B3F5164F276848
:104B700067D02DD8B3F5165F66D016D8B3F5966F0B
:104B800064D00AD8B3F5967F63D0B3F5167F63D0AF
:104B90006FF0850054E00025D9E7B3F5166F5ED0BD
:104BA000B3F5965FF4D1384B3CE0B3F5E14F59D003
:104BB00007D8B3F5615F57D0B3F5964FE8D1334BC3
:104BC00030E047F61224A342E2D14FF4000329E07B
:104BD000B3F5613F4AD013D8B3F5963F49D009D811
:104BE0004DF6C024A34246D0B3F5614FD0D14FF467
:104BF0006B0317E0B3F5E13FCAD14FF0EB7311E05F
:104C0000B3F5612F3AD008D8214CA34239D0B3F57F
:104C1000E12FBDD14FF0E86304E01E4CA342B7D1B1
:104C20004FF080530469C7F82435436835431B6847
:104C30002A43C3F86C2503C9231D83E80300002021
:104C4000F0BD4FF41D03EDE7134BEBE74FF49E234C
:104C5000E8E74FF4A033E5E74FF41C33E2E74FF405
:104C60001D23DFE70D4BDDE70D4BDBE74FF06C73EA
:104C7000D8E70C4BD6E74FF46503D3E74FF07063EA
:104C8000D0E74FF08063CDE700B0130000A04E00E6
:104C900090D0030040420F000050270000C0750074
:104CA00000F03A0000903A012DE9F74347680669A1
:104CB0003C680021C4F800153060D7F80C9080469D
:104CC00001AA484605F0C4FA051E54DB019BD9F839
:104CD00000201979186800F081FB051E4BDB311D9F
:104CE0004046FFF72DFF0546002844D17B68990711
:104CF0001AD506F11C0001F079F9224B98423ED1F9
:104D0000337FDB0003F1804303F5F83304F10C0239
:104D100004F59071C3F81015C3F81425327F0123F0
:104D20009340194AC2F804350823C4F800353B7A89
:104D300053B9C4F81031D4F81031B369C4F834351C
:104D40000123C4F8383523607B689A075CBF4FF4B1
:104D50008073C4F804337B68DB0644BF4FF48003E0
:104D6000C4F804337369C4F844350023C4F84835E3
:104D70000123A360E360284603B0BDE8F0836FF031
:104D80000405F8E70000AD0B00F00140F8B504465B
:104D900007690D4605F0BCFBB0B9214B1B789BB1F0
:104DA0006426606805F079F900BB012005F073FA0C
:104DB000013EF6D10021212002F03CF8F0E781F31A
:104DC0001188BFF36F8FF5E74FF02003EFF31181E8
:104DD00083F31288BFF36F8F60680E4605F05DF9AC
:104DE00090B981F31188BFF36F8FEDE74FF0200387
:104DF000EFF3118183F31288BFF36F8F60680E4663
:104E000005F04BF90028DAD07B691D707969012221
:104E1000204605F082F886F31188BFF36F8FF8BD46
:104E2000E31C002070B5012383400E4ABFF35B8F63
:104E3000DC4352E8001F01EA040542E80056002E58
:104E4000F7D1BFF35B8F4FF4803282400648C0F841
:104E50000823BFF35F8FBFF36F8F0B4214BF012096
:104E6000002070BD6C15002000100140F0B41849FE
:104E70000B6822F07F44D21A164D2B68002BBCBF62
:104E800003F5FF437F33DB13B2FBF3F02B68002BFA
:104E9000B8BF03F5FF43D1E90052B8BF7F33DB133E
:104EA00043435B1942F10002C1E90032A4F500134B
:104EB000B3F5400F09D2084B1B681A0A1B061E19CE
:104EC000064B42F10007C3E90067F0BC02F02EB9BF
:104ED0001805002000020020701500202005002089
:104EE00011B3BFF35B8F0123104A834052E800CF18
:104EF0004CEA030C42E800C10029F7D1BFF35B8FF5
:104F00000B4A4FF480338340C2F80433094BBFF39C
:104F10005B8F1B68BFF35B8FC340DB0742BF064B51
:104F20004FF40032C3F80021704700BF6C15002019
:104F3000001001406815002000E100E00D4B1868EA
:104F4000010A0006BFF35F8F0B4BD3F80435181826
:104F500041F10001B3F5801F0AD2084BD3E90023C9
:104F6000904271EB030303D210F1807041F1000114
:104F7000704700BF70150020001001402005002080
:104F80002DE9F74F16461F460446FFF74BFF0090EA
:104F9000FFF7D4FFB04271EB070351D23A4B301AFE
:104FA00067EB0101984271F100016AD2374B03EBC4
:104FB0000413D3E902239F4208BF96424ED03449DE
:104FC0004FF4803904F1500509FA04F9AD00C1F835
:104FD00048932046ADB205F02BF926F07F4B05F142
:104FE000804504F5A8732B4A019305F58835DC4606
:104FF0004FF0030A019B2CF07F4041F82300C1F8D9
:105000004493D1F804856FF00200A0EB08006044DF
:1050100020F07F40904221D9286860B1D1F8048502
:10502000A8EB0B0020F07F40B0F5000F16D920460A
:1050300005F0FEF8174A0AEB080C0AF1010AD9E755
:105040000123154ABFF35B8FA34052E8000F1843BA
:1050500042E800010029F8D1BFF35B8F0B490C989F
:10506000230101EB0412C2E90267C8500D9B536093
:10507000002520460099FFF733FF284603B0BDE81E
:10508000F08F6FF01505F4E701008000080500209F
:1050900000100140FDFF7F006815002013B5264B6E
:1050A000264C00224FF0FF304FF0FF31C4F80825A6
:1050B000C3E902014FF48033C4F804330223C4F877
:1050C00004331F4B4FF40031C3F88011112001212C
:1050D000FEF794FD1120FEF775FD1A4A0123A36027
:1050E00023601360184801680029BCBF01F5FF4127
:1050F0007F31C913C1F500010368002BBCBF03F564
:10510000FF437F33DB13B1FBF3F102680F4B0093D6
:10511000002ABCBF02F5FF427F320024D2134A436B
:10512000234601942046FFF72BFF0220FFF722FBC6
:10513000204602B010BD00BF08050020001001404D
:1051400000E100E06C150020000200206D4E000020
:105150002DE9F7432F4CD4F8043399070BD5D4F835
:10516000043143B12C4A0023C4F80431D4F804318B
:10517000136801331360D4F80433DA032AD5BFF37C
:105180005B8F264B53E8002F22F0010143E800100B
:105190000028F7D1BFF35B8FD30702D4D4F8403196
:1051A000C3B10025C4F84051D4F84031FFF7C6FE22
:1051B0004FF02003EFF3118283F31288BFF36F8F58
:1051C000174BD3E90267B042B94106D282F3118886
:1051D000BFF36F8F03B0BDE8F0834FF0FF384FF09F
:1051E000FF39C3E90289D3E900101D604FF4803311
:1051F000C4F84833C4F84051D4F8403182F31188E0
:10520000BFF36F8F0029E5D0009032463B46284619
:105210008847DFE700100140701500206815002066
:1052200008050020431C37B55C4D40F082802A6899
:10523000002ABCBF02F5FF427F32D213C2F5000242
:105240002B68002BBCBF03F5FF437F33DB13B2FB9E
:10525000F3F22B68002BBCBF03F5FF437F33DB1356
:1052600002FB03F4FFF76AFE4D490B68C01AB0F564
:10527000000F28BF00242B68002BBCBF03F5FF43A1
:105280007F3300EBE330013820442B68002BBCBF98
:1052900003F5FF437F33DB13B0FBF3F02A68002AEA
:1052A000BCBF02F5FF427F32D21342432B68002B72
:1052B000BCBF03F5FF437F33DB13C3F5000328684E
:1052C0000028BCBF00F5FF407F30C013B3FBF0F3F4
:1052D00028680028BCBF00F5FF407F30C01358434A
:1052E000904219D22B68002BBCBF03F5FF437F33DC
:1052F000DB13C3F500032A68002ABCBF02F5FF4296
:105300007F32D213B3FBF2F32A68002ABCBF02F546
:10531000FF427F32D2135A43D1E900430020214992
:1053200001901219009143F10003FFF729FE03B029
:1053300030BD01282FDD2B68002BBCBF03F5FF43D8
:105340007F33DB13C3F500032A68002ABCBF02F5D4
:10535000FF427F32D213B3FBF2F3834211DC2868A1
:105360000028BCBF00F5FF407F30C013C0F500002F
:105370002B68002BBCBF03F5FF437F33DB13B0FB6F
:10538000F3F02B68002BBCBF03F5FF437F33DB1327
:1053900000FB03F466E70120F3E700BF00020020F2
:1053A000180500206D4E000008B5FFF7C7FD094A3B
:1053B000D2E90032C01A61EB0201074B1B68002BD7
:1053C000BCBF03F5FF437F33DA13DB17FAF7F4FEB4
:1053D00008BD00BF18050020000200202DE9F041A3
:1053E0005A4E00EB81010127814202D10020BDE825
:1053F000F081046804F07F03C4F343257F2B4FEA58
:10540000144408BF4FF0FF33222C00F29B80DFE8EA
:1054100004F0122429442C40449999999947709991
:105420009999999999999999737B7E819999998478
:105430008A8D90939600C2F80C354FEA531CBCF14C
:10544000010F03F01F0414BF4FF0A04CB44607FA3D
:1054500004F4CCF80845012402E0C2F81435002415
:10546000A64624E0C2F80835E7E7C2F8083500246C
:105470004FEA531EBEF1010F14BF4FF0A04EB646C7
:1054800003F01F0C07FA0CFCCEF80CC54FF0010E10
:105490000DE0C2F80C350124EAE7C2F81035DEE76A
:1054A000C2F80835002DDAD10024A646062550F8AA
:1054B00004CB0CF40058B8F1000F4FEA0525CCF3EB
:1054C000C11803F01F0C4FEA53131CBF01244FF007
:1054D000000E45EA8805012B0CBF33464FF0A04370
:1054E00045EA0E050CF5E07C45EA440543F82C50EE
:1054F0007AE7C2F80C35D5E7C2F860350468C4F322
:105500008034002CC7D098E7C2F86435F6E7C2F8BB
:105510006835F3E7C2F86C35F0E7C2F824350124AA
:105520004FF0000EC3E7C2F8283586E7C2F83035E1
:10553000F5E7C2F83435F2E7C2F83835EFE7C2F8DC
:105540003C35ECE76FF0850051E700BF00030050E9
:105550004FF08053D3F83021082A06D1D3F83431E4
:10556000052B02D8024AD05C70470020704700BF6C
:105570000ED40000024AD2F80034002BFBD0704752
:1055800000E0014010B54FF08053D3F83021082AD5
:105590004ED14FF080420021C2F80C11C2F8101118
:1055A000C2F8381502F54042D3F80414C2F82015A9
:1055B000D3F80814C2F82415D3F80C14C2F828152F
:1055C000D3F81014C2F82C15D3F81414C2F83015FF
:1055D000D3F81814C2F83415D3F81C14C2F84015C7
:1055E000D3F82014C2F84415D3F82414C2F848158F
:1055F000D3F82814C2F84C15D3F82C14C2F850155F
:10560000D3F83014C2F85415D3F83414C2F8601526
:10561000D3F83814C2F86415D3F83C14C2F86815EE
:10562000D3F84014C2F86C15D3F84434C2F870357E
:10563000FFF78EFF18B13B4B3B4AC3F88C26FFF7B0
:1056400087FF18B1394BFB22C3F81825FFF780FFFD
:1056500070B14FF080414FF08053D1F8E42ED3F871
:10566000583222F00F0203F00F031343C1F8E43E57
:10567000FFF76EFF20B12E4B4FF40072C3F84026A7
:105680004FF08053D3F83031082B1AD14FF08043BC
:10569000D3F80024D20744BF6FF00102C3F80024FE
:1056A0004FF08053D3F83431052B02D8214AD35C14
:1056B0003BB14FF01023D3F808224FF08043C3F8DA
:1056C00058254FF01023D3F80022002A03DBD3F82B
:1056D0000432002B22DA184901234FF01020C1F8C0
:1056E00004351224FFF746FFC0F80042FFF742FFDF
:1056F000C0F80442FFF73EFF0023C1F80435FFF76E
:1057000039FFBFF34F8F0D490D4BCA6802F4E062B9
:105710001343CB60BFF34F8F00BFFDE7094B0A4A2D
:105720001A6010BD005000404881030000F00040A6
:105730000090024008D4000000E0014000ED00E0CD
:105740000400FA057C0100200090D00370B501250B
:105750000268BFF35B8FB2FA82F3C3F11F03DBB2BF
:1057600005FA03F422EA040450E8006F964204D1DB
:1057700040E8004CBCF1000FF6D1BFF35B8FE7D1DE
:1057800001480B7070BD00BF0000AD0B10B5036881
:10579000CB40DB0714D401238B400268BFF35B8F3F
:1057A00043EA020150E8004F944204D140E8001C53
:1057B000BCF1000FF6D1BFF35B8FEED1014810BDF5
:1057C0000148FCE70000AD0B0400AD0BF7B5044643
:1057D00018B1012822D003B0F0BD4FF0804302225F
:1057E000C3F80823C3F80401D3F804210122DA60C6
:1057F000074601238DF8073042F210754FF08046BE
:10580000CCB1012CE7D1C7B3D6F80C3403F00103B7
:105810003B70D6F80C34DA0321D516E04FF0804304
:105820000022C3F80803C3F80021D3F80021586010
:105830000DF10707DDE7B7B1D6F8183403F003031D
:105840003B60D6F81834D803C5D59DF80700012869
:1058500003D104F020FD013DD2D1012CBBD10C4B72
:1058600000225A71B7E7D6F81834D903B3D501200E
:1058700004F011FD013DF6D1ADE7D6F80C34DB03A1
:10588000EDD5012004F007FD013DF6D1E7E700BFAB
:1058900074150020044B1A7922B9012218609A80ED
:1058A0000248704702487047741500200000AD0B95
:1058B0000C00AD0B10B54FF08043D3F800216AB156
:1058C0000022C3F80021D3F800210122C3F80823E5
:1058D000114B587910B95A711B6898474FF08043A3
:1058E000D3F8042172B10022C3F80421D3F80421B3
:1058F000D3F81824D3F81814920704D10122C3F85E
:1059000018259A6010BD0222C3F80823024BBDE897
:1059100010401B680120184774150020036803F02D
:105920001F025B09012B0260024818BF4FF0A04024
:10593000704700BF00030050034B083033F81000DD
:10594000C0F34010704700BF8001002070B500F127
:1059500008030C4C34F81330DA0505460E4607D51B
:10596000C3F3432304EBC30254F83330526898471F
:10597000A3682BB1E26831462846BDE8704018475D
:1059800070BD00BF8001002010B4124A083032F808
:105990001030D9051BD5C3F3432123F4F85322F863
:1059A000103002F10E04002034F8023F13F4807F1F
:1059B00003D0C3F34323994209D001303028F3D1F7
:1059C000002342F83130044810BCFFF7DFBE10BCA2
:1059D000704700BF80010020F401002038B5024666
:1059E000FFF7AAFF094C02F1080540B134F8153061
:1059F00007495B0B03F5A273002041F82300104612
:105A0000FFF7C2FF002324F8153038BD80010020C5
:105A1000006000402DE9FF41044616461D4601B3D3
:105A20004E4F00F1080837F818309B0702D5FFF7F2
:105A300083FF10BB0023CDE900338DF80E308DF8C5
:105A40000F300DF10F020B4620460DF10E0104F050
:105A50006FFC37F8183023F0020343F0010327F8F6
:105A6000183046B33D4B96F800C0726804F1080741
:105A700033F81710880702D5AAB139481DE021F084
:105A80002001C904C90C23F8171062B1BCF1030F3F
:105A9000F3D872681678BCF1000F11D1314A06F5BF
:105AA000A27642F826C033F8172022F01C0242EA00
:105AB0008C0223F8172045BB2B4804B0BDE8F081C9
:105AC000B20002F1804202F5C04241EA4631D2F80A
:105AD000100520F00300C2F81005D2F8100520F4DC
